:020000040800F2
:10000000300D00204502000841330008E7320008A7
:100010003D3300083B150008D93D000800000000F2
:10002000000000000000000000000000693400082B
:100030003F1500080000000043330008C1340008E9
:100040005F0200085F0200085F0200085F0200080C
:100050005F0200085F0200085F0200085F020008FC
:100060005F0200085F0200085F0200085F020008EC
:100070005F0200085F0200085F0200085F020008DC
:100080005F0200085F0200085F0200085F020008CC
:100090005F0200085F0200085F0200085F020008BC
:1000A0005F0200085F0200085F0200085F020008AC
:1000B000D1350008E1350008453600085F02000828
:1000C0005F0200085F0200085F0200085F0200088C
:1000D0005F020008993D00085F0200085F02000807
:1000E0005F0200085F0200085F0200085F0200086C
:1000F0005F0200085F0200085F0200085F0200085C
:100100005F0200085F0200085F0200085F0200084B
:100110005F0200085F0200085F0200085F0200083B
:100120005F0200085F0200085F0200085F0200082B
:1001300000F002F800F076F80AA090E8000C824483
:100140008344AAF10107DA4501D100F06BF8AFF260
:10015000090EBAE80F0013F0010F18BFFB1A43F0A5
:1001600001031847645C0000845C00000A444FF0FF
:10017000000C10F8013B13F0070408BF10F8014B06
:100180001D1108BF10F8015B641E05D010F8016B4B
:10019000641E01F8016BF9D113F0080F1EBF10F8AF
:1001A000014BAD1C0C1B09D16D1E58BF01F801CBD2
:1001B000FAD505E014F8016B01F8016B6D1EF9D555
:1001C0009142D6D37047000000230024002500266A
:1001D000103A28BF78C1FBD8520728BF30C148BFAA
:1001E0000B607047662905F0D984642900F0A88067
:1001F000752900F0A580782900F0DE80632900F0E1
:100200003F84732900F04484002070471FB500F03C
:1002100055FC04000020002105F074F8E0601FBDCB
:1002200010B510BD00F062FD1146FFF7EFFF03F0BF
:10023000DBFE00F080FD03B4FFF7F2FF03BC03F028
:1002400004FE00000948804709480047FEE7FEE732
:10025000FEE7FEE7FEE7FEE7FEE7FEE7FEE7FEE776
:1002600004480549054A064B70470000CD34000894
:100270003101000830070020300D00203009002037
:1002800030090020704700000FB4044910B503AADC
:10029000029800F001FC10BC5DF814FB1400002073
:1002A00070B5044685690068C10601D5302600E0B6
:1002B0002026C00707D070BDD4E901213046904701
:1002C000206A401C20626D1EF6D570BD70B50446D4
:1002D00085690078C00707D170BDD4E901212020CD
:1002E0009047206A401C20626D1EF6D570BD70B527
:1002F0000C460546012A05D02878800600D5EA6913
:10030000002302E0012305E05B1C934202D2E05C83
:100310000028F9D1A869E618C01AA861286A18440B
:1003200028622846FFF7BCFF04E0D5E9012114F854
:10033000010B9047B442F8D32846FFF7C7FF70BDC2
:100340002DE9F0410646002410687529314616A5AE
:1003500010D0AFF30080002802DA404213A507E076
:1003600031688A0701D512A502E0490704D511A515
:10037000012401E0AFF3008000210A2206F12407E6
:1003800009E0B0FBF2FCB0FBF2F302FB1C003030E2
:1003900078541846491C0028F3D123462A46304693
:1003A000BDE8F04100F0FCB8000000002D000000A6
:1003B0002B0000002000000070B504460D462146C9
:1003C0001068AFF300802188090502D50F4A7A44EE
:1003D00002E00E4A7A440E32002104F1240305E0C3
:1003E00000F00F060009965D5E54491C0028F7D105
:1003F00020780023000704D5702D02D009B1022314
:1004000011322046BDE8704000F0CAB8E65700003F
:100410002DE9F05F894604464FF0000ADFF874B119
:10042000FB44C0F820A02046E1688847002874D02B
:10043000252806D0D4E901219047206A401C20627B
:10044000F1E700265F462046E168884720280546F8
:1004500007DB312D05D2781910F8200C08B10643BE
:10046000F1E7B00701D526F00406C4F81CA0002768
:10047000C4F818A02A2D09D0284603F0DFFC38B3B1
:1004800004EB8708303DC8F8185019E059F8041BF0
:10049000204604EB87029161E1688847012F0546F9
:1004A00018D1E069002820DA26F020061DE0D8F8EF
:1004B000180000EB800005EB40003038C8F8180049
:1004C0002046E1688847054603F0B8FC0028EED1D5
:1004D000012F0AD02E2D08D12046E16888477F1CC5
:1004E0000546022F46F02006C4DBA069002803DA87
:1004F000404246F00106A061F00701D026F0100648
:100500006C2D0BD0682D09D04C2D39D06A2D35D0EB
:10051000742D35D07A2D33D016E038E0E1682F46BF
:1005200020468847B842054609D16C2F26D04FF4A3
:100530008060E168064320468847054604E06C2F4A
:100540001AD04FF4807006430DB3A5F1410019286D
:1005500002D8203546F400664A46294620462660E1
:100560004E46FFF73FFE80B101280BD0F61D26F066
:10057000070000F1080956E74020E4E78020D8E7AB
:100580000020D6E706F104094DE7284652E7206A25
:10059000BDE8F09FBC570000704770477047704738
:1005A0002DE9F0470D4699469246044600F124088D
:1005B0000168880604D5E06921F01001216000E09F
:1005C0000120A84201DD471B00E00027A1697A193C
:1005D00002EB0900081AA0612078C00602D4204668
:1005E000FFF75EFE002608E0D4E901211AF80600B4
:1005F0009047206A401C761C20624E45F4DB207830
:10060000C0060AD52046FFF74BFE06E0D4E90121DB
:1006100030209047206A401C2062381EA7F1010755
:10062000F4DC07E0D4E9012118F805009047206ABE
:10063000401C2062281EA5F10105F3DC2046FFF7CF
:1006400045FE2078000602D50220BDE8F087012093
:10065000FBE770472DE9FF4F0C461E464FF0FF3772
:100660008BB0D2E90001DDF860800A908A46C1F3C0
:100670000A5505B93D46002108464FF00000BAF181
:10068000000F00F4400005DA00EB80004FF4400159
:1006900001EA50004FEA9059B9F1010F00DDB94667
:1006A0000A9850EA4A000ED044F61050A5F2FF35E1
:1006B00045432F14B8F1000F1ED07542291E1EDDD0
:1006C000C9F100021CE0B8F1010F4FF0000001D0A9
:1006D000302103E0F24305E02154401CB042FBDB33
:1006E00030460022002121540B99C1F80880C1E94D
:1006F00000200FB0BDE8F08FBD1B6D1CDEE74A4641
:1007000000DA694206A800F07BFA06AB93E807001E
:1007100003AB83E8070050460A9900F053FB8DE8CD
:100720000700A0F500501F3800900398002D09DD48
:1007300042F21F014A46084403A90390684600F0AC
:10074000B2FD08E0A0F500504A461F3803A9039007
:10075000684600F0BCFD8DE807000004000C03D0E3
:100760004FF0FF30410800E01046B8F1000F03D011
:100770000022009215461EE0751E05D400F0A2F975
:10078000303262556D1EF9D5B3460122084302D0BE
:1007900000227F1C04E02078302801D100227F1E37
:1007A000002A099786D01DE0112D07DA00F08AF99A
:1007B000303262556D1C50EA0102F5D1084302D077
:1007C0000098C8B10EE00021681E05E0235C625C61
:1007D00063542254401E491C8142F7DBAB46A81BE0
:1007E000401E0990002004F80B000B98099AC0F8ED
:1007F0000880C0E9002B7CE711264FF0000859E77C
:100800002DE9F04F88460446D21D22F0070191B031
:10081000D1E90001CDE90A0103F0E0FA02460B98A4
:10082000C00F01D02D2007E02068810701D52B20C3
:1008300002E0202101EAC000032A099001D0072A22
:1008400005DB03464146204600F09AF90BE120788B
:10085000800601D5E06900E00620B8F1650F814609
:1008600006D0B8F1660F18D0B8F1670F70D131E03B
:100870000020B9F1110F009001DB112301E009F113
:1008800001030AAA01A90CA8FFF7E4FEDDE90C7038
:10089000002609F10105834647E001204B46009000
:1008A0004FF000470AAA01A90CA8FFF7D3FEDDE923
:1008B0000DB00C995D46002610B909F101000D1824
:1008C000B9EB050003D4C0F1FF3609F10105A5EB32
:1008D00009002BE0B9F1010F01DA4FF00109002006
:1008E000B9F1110F0090484601DD112300E00346E5
:1008F0000AAA01A90CA8FFF7ADFEDDE90C704D4670
:1009000000268346207800070AD4AB4500DA5D460E
:1009100001A8012D04DD411911F8011C302907D06F
:100920004F4502DA17F1040F04DA012082460FE086
:100930006D1EEEE7002F02DCED1B3E4403E0781C49
:10094000A84200DD7D1CB81B00F1010A4FF00047F2
:100950002078000703D4AA4501DB4FF0FF3A0021BD
:10096000B7F1004F0DF143088DF8431024D0022059
:100970002B23002F01DA7F422D230A21021EA0F132
:10098000010000DC5FB197FBF1FC97FBF1F201FB8A
:100990001C7C17460CF1300C08F801CDEEE7A8F1ED
:1009A000010003702188090501D5452100E065217A
:1009B000A0F1010800F8011C09980FA9A1EB080794
:1009C000FF1D00B10120411901EBEA70A169384413
:1009D000081A401EA0612078C00602D42046FFF706
:1009E0005FFC099828B1D4E901219047206A401C96
:1009F00020622078C00622D52046FFF751FC1EE079
:100A0000002E04DBB34502DD01A8805D00E030204C
:100A1000D4E901219047206A401C2062761CAAF18B
:100A200001005FEA000A0AD100F048F8C0680168D6
:100A3000405CD4E901219047206A401C2062281EB6
:100A4000A5F10105DCDC07E0D4E9012118F8010B70
:100A50009047206A401C2062381EA7F10107F3DC92
:100A60002046FFF733FC032011B043E610B543697D
:100A700013B1AFF3008001E0FFF739FC012010BD96
:100A8000127800F124010A7000224A700122EDE779
:100A900011684FF0FF32E9E7074B70B50D467B4414
:100AA00000F05BF80446284600F018F910B14FF04A
:100AB000FF3070BD204670BD2F34000000487047E5
:100AC000F006002030B5B0F10A024FEA900E71F145
:100AD00000034EEA817EB0EB0E0061EB91014FEA1C
:100AE000101E4EEA017E10EB0E0041EB11114FEA91
:100AF000102E4EEA016E10EB0E0041EB11214FEA71
:100B0000104E4EEA014E10EB0E0041EB1141401821
:100B100041F100014FEAD00040EA41704FEAD101B3
:100B200010EB80054FEA810444EA907444EB010421
:100B30006D1944EB0404521BA3414FF0000348BF5E
:100B40000A3200D530BD401C41F1000130BD00002B
:100B500001694A1C02610878704700B58FB0CDE981
:100B600001310021059105497944CDE90310114671
:100B70006846FFF74DFC0FB000BD0000E5FFFFFF2A
:100B80002DE9F0411F46044603260168072A01F4B7
:100B9000006004DB08B116A505E016A503E008B166
:100BA00015A500E015A521F010002060A069C01E69
:100BB000A0610FB1401EA0612046FFF771FB4FB14D
:100BC000D4E9012138469047206A401C2062C01CAD
:100BD000206206E0206AFAE7D4E9012115F8010B4A
:100BE0009047761EF8D22046FFF770FBBDE8F081F3
:100BF0004E414E006E616E00494E4600696E6600C1
:100C00002DE9F047814616468AB0334878440DC82E
:100C10008DE80D0030487844801C03AC0DC884E892
:100C20000D0041F69B300844372190FBF1F290FB18
:100C3000F1F5A5F1800501FB12041B3C02D56442CD
:100C4000012000E00020DFF890A080460027FA4451
:100C5000AAF1BE0A0DE0E00709D03246684607EB6C
:100C600047010AEB810100F032FB8DE807006410B8
:100C70007F1C002CEFD1184F7F44AC3F18E0E807F1
:100C800014D007EB04100DF1180A90E80E008AE862
:100C90000E00C068F04201D198190890324606A9AA
:100CA00003A800F014FB03AB83E807006D10641C7D
:100CB000002DE4D132466946B8F1000F03A802D0F6
:100CC00000F0F1FA01E000F002FBC9E90001C9F807
:100CD00008200AB0BDE8F08760500000007B00F0FB
:100CE0008000704700487047D00600207546FFF727
:100CF000F9FFAE4605006946534620F007008546D9
:100D000018B020B5FFF7ACFABDE820404FF0000660
:100D10004FF000074FF000084FF0000B21F00701E3
:100D2000AC46ACE8C009ACE8C009ACE8C009ACE826
:100D3000C0098D4670470446AFF300802046FFF798
:100D40007AFA00004FF0013C50F8042B51F8043BB4
:100D50009A4221D1A2EB0C03934313EACC1317D18F
:100D600050F8042B51F8043B9A4215D1A2EB0C0326
:100D7000934313EACC130BD150F8042B51F8043BE6
:100D80009A4209D1A2EB0C03934313EACC13DBD0B4
:100D90004FF00000704700BFD01A01BAB1FA81F1DC
:100DA00001F0180122FA01F0CB40C1F12001DBB2C1
:100DB000C0B2C01A2CFA01F3D11A914311EAC3113F
:100DC000E6D170475FEA400C08BF91F0000F4FEA90
:100DD0008C234FEAC12243EA51514FEA1C5018BFFD
:100DE00000F5F0404FEA300018BF41F000415FEAE3
:100DF0006C5C00F02980BCF1FF3F08BF40F08040F0
:100E00007047130C06BF12044FF0100C4FF0000C8B
:100E1000130E04BF12020CF1080C130F04BF1201D1
:100E20000CF1040C930F04BF92000CF1020CD30FD1
:100E300004BF52000CF1010C11464FF00002A0F16A
:100E40001F00A0EB0C00704711F0004F08BF704767
:100E500031F000413FF4D5AF0B0C06BF09044FF051
:100E6000100C4FF0000C0B0E04BF09020CF1080C23
:100E70000B0F04BF09010CF1040C8B0F04BF890098
:100E80000CF1020CCB0F04BF49000CF1010CCCF1AA
:100E90002003A0EB0C0022FA03F302FA0CF241EA61
:100EA000030100F10100704720F07F4C80EA03004D
:100EB00023F07F47ACEB070303F57C5300F00040C1
:100EC00003F1FF032DE980494FEA154B09B44FEABE
:100ED000144325EA0B4E24EA03480FF2042606EBDE
:100EE000132749083E785FEA320203FB0667C7F51D
:100EF000000707FB06F64FEA54374FEAD64606F1DD
:100F0000020607FB066CCCF1005C4FEA1C472CEA9A
:100F1000074C07FB06F40CFB06F504EB15464FEAFD
:100F2000961634BF00204FF000404FEAD13706FB41
:100F300007FC4FEA1C4C0CFB0BF7D21B03FB0CF716
:100F400061EB07010CFB0EF7B0EB074072EB1742A9
:100F50000CFB08F734BFA2EB0742B2EB074261EB90
:100F600017414FEA0C444FEA910706FB07FC4FEA92
:100F70001C4C0CFB0BF7B0EBC74072EB573203FB7A
:100F80000CF734BFA2EBC742B2EBC74261EB57315B
:100F90000CFB0EF7B0EBC70072EB57720CFB08F7B7
:100FA00034BFA2EBC702B2EBC70261EB5771039FDC
:100FB0004FEA816141EA921104EBCC044FEAD13748
:100FC0004FEA826206FB07FC42EA90124FEA806019
:100FD0004FEA1C4C0CFB0BF7D21B03FB0CF761EB2D
:100FE00007010CFB0EF7B0EB074072EB17420CFB4E
:100FF00008F734BFA2EB0742B2EB074261EB17419F
:101000004FEA8C554FEA910704EB9C2406FB07FC42
:101010004FEA1C4C0CFB0BF7B0EBC74072EB57329E
:1010200003FB0CF734BFA2EBC742B2EBC74261EB44
:1010300057310CFB0EF7B0EBC70072EB57720CFB8D
:1010400008F734BFA2EBC702B2EBC70261EB5771DE
:1010500015EB4C254FEA816141EA92114FEA826219
:101060004FEAD13742EA901206FB07FC44F1000434
:101070004FEA80604FEA1C4C0CFB0BF7D21B03FBC2
:101080000CF761EB07010CFB0EF7B0EB074072EBBE
:1010900017420CFB08F734BFA2EB0742B2EB074242
:1010A00061EB174115EB1C154FEA813141EA924182
:1010B0004FEA823242EA90424FEA80304FEA0C76A1
:1010C00044F1000448EA03434EEA0B484FF0000E97
:1010D000B2EB080C71EB030724BF624639464EEBB6
:1010E0000E0E4FF0000B0018524149414BEB0B0B19
:1010F000B2EB080C71EB03077BF1000B24BF6246D7
:1011000039464EEB0E0E4FF0000B0018524149418C
:101110004BEB0B0BB2EB080C71EB03077BF1000BF5
:1011200024BF624639464EEB0E0E51EA020718BF45
:1011300046F0010616EB0E7655F1000254F100015F
:1011400003D5BDE88901BDE80088BDE88901BDE897
:101150000048B619524141EB0101A3F10103704768
:1011600080807F7E7D7C7B7A7978777676757473E4
:10117000727171706F6E6E6D6C6C6B6A6A696868A3
:10118000676666656464636362616160605F5F5E39
:101190005E5D5D5C5C5B5B5A5A59595858575756AF
:1011A0005655555554545353525252515150505014
:1011B0004F4F4F4E4E4D4D4D4C4C4C4B4B4B4A4A66
:1011C0004A494949484848474747474646464545AA
:1011D00045444444444343434342424242414141E3
:1011E000002B26D4770021D01CB54FEA370703B473
:1011F0004FF010004FF010014FF000000FBCBDE8A1
:1012000010400BF1010BBBF1010F08BF5FEA17079C
:1012100022BF12F1010211F101014FF0004143F12F
:10122000000300F0004043EA00007047F9D357087C
:10123000DAE746EA064613F1400F4FEA16461FDD8D
:1012400013F1200FDFBF16430A46002120335B4213
:10125000C8D0C3F1200746EA064602FA07F74FEA6C
:10126000164646EA0706C3F1200722FA03F201FAFE
:1012700007F721FA03F14FF0000342EA0702B1E752
:1012800046EA020646EA06464FEA164646EA0106DE
:10129000BCBF46EA0646360C4FF000034FF0000292
:1012A0004FF000019EE72DE9C048934630B491E825
:1012B000380007C831EA400C48BF34EA430C03D574
:1012C000FFF7F2FDFFF78CFFF0BCBDE800882DE9C9
:1012D000C048934630B491E8380007C810F0804FFA
:1012E00008BF13F0804F03D100F005F8FFF778FF37
:1012F000F0BCBDE8008820F07F4780EA030023F0BF
:101300007F4C07EB0C03A3F57C5300F00040A3F1E6
:10131000FE0392F0000F00F0B38095F0000F00F094
:1013200077802DE901494FEA11404FEA144621EA3E
:10133000004800FB06FC24EA064708FB06F607FB0C
:1013400008F800FB07F718EB06484CEB164C4FEA81
:10135000124B18EB07484FEA15464CEB174022EAB0
:101360000B4E0BFB06FC25EA06470EFB06F607FBB9
:101370000EFE0BFB07F71EEB064E4CEB164C4FF028
:1013800000061EEB074E4CEB174B18EB0B0840F119
:10139000000018EB0E0B58EB000840F100008F1A0C
:1013A0004FF000013CBFC943661B14BFB5EB040CF2
:1013B00000213CBFC943F61B4FEA17444EEA8E0E8C
:1013C00027EA04454FEA1C4704FB07622CEA074C56
:1013D00005FB07F70CFB05F604FB0CFC16EB0746B8
:1013E00042EB174216EB0C4642EB1C421BEB060687
:1013F00058EB0202414146EA9E0601D5BDE801894B
:10140000B619524141EB0101A3F10103BDE8018985
:101410004FEA14454FEA114724EA054621EA074CF2
:1014200005FB07F406FB07F70CFB06F105FB0CFCBC
:1014300011EB074144EB17444FEA124711EB0C4103
:1014400044EB1C4422EA074C05FB07F206FB07F7B6
:101450000CFB06F605FB0CFC16EB074642EB1742AD
:1014600016EB0C4642EB1C456A1854F1000148BFCC
:101470007047B619524141EB0101A3F101037047D6
:1014800095F0000F37D04FEA11424FEA144721EA96
:10149000024624EA074C02FB07F106FB07F70CFBA8
:1014A00006F402FB0CFC14EB074441EB17414FEA36
:1014B000154714EB0C4441EB1C4125EA074C02FB99
:1014C00007F506FB07F70CFB06F602FB0CFC16EB18
:1014D000074645EB174516EB0C4645EB1C42121927
:1014E00051F1000148BF7047B619524141EB01016B
:1014F000A3F1010370474FEA14454FEA114724EA6C
:10150000054621EA074C05FB07F106FB07F70CFB34
:1015100006F24FF0000605FB0CFC12EB074241EB14
:10152000174112EB0C4251EB1C4148BF7047921817
:1015300041EB0101A3F10103704700BFFEE77047D3
:1015400070B50446002594F82100022803D0042039
:10155000A0630125C1E02068006820F00E0021682A
:1015600008602068006820F00100216808605C497C
:101570002068884252D95A4978392068884201D176
:10158000012047E0564964392068884201D1102083
:1015900040E0534950392068884201D1801539E034
:1015A0004F493C392068884201D1801432E04C49CF
:1015B00028392068884202D14FF480302AE0484917
:1015C00014392068884202D14FF4801022E0444947
:1015D0002068884201D140041CE0424920688842CA
:1015E00001D1012016E03F4914312068884201D121
:1015F00010200FE03B4928312068884201D1801536
:1016000008E038493C312068884201D1801401E06B
:101610004FF480303349091F086051E03049783970
:101620002068884201D1012047E02D4964392068B3
:10163000884201D1102040E0294950392068884271
:1016400001D1801539E026493C392068884201D112
:10165000801432E0224928392068884202D14FF4B0
:1016600080302AE01E4914392068884202D14FF4A4
:10167000801022E01A492068884201D140041CE011
:1016800018492068884201D1012016E0154914311B
:101690002068884201D110200FE0124928312068CB
:1016A000884201D1801508E00E493C31206888420B
:1016B00001D1801401E04FF480300949803948603D
:1016C000012084F8210000BF002084F8200000BF22
:1016D000606B10B12046616B8847284670BD0000E2
:1016E00080000240080402402DE9F847024600232A
:1016F0009C467BE14FF0010808FA03F4D1F8008022
:1017000008EA0400A0427DD1DFF8F4A2D1F80480F9
:10171000A8EB0A09D0453AD014DCB8F1030F50D039
:1017200009DCB8F1000F31D0B8F1010F1CD0B8F1CD
:10173000020F49D120E0B8F1110F18D0B8F1120F03
:1017400042D11EE0B9F5881F25D006DCB9F5803FEF
:1017500020D0B9F5801F37D11AE0B9F5001F18D095
:10176000B9F5041F30D117E0D1F80CC02DE0D1F845
:101770000C8008F1040C28E0D1F80C8008F1080C6A
:1017800023E0D1F80C8008F10C0C1EE000BF00BF74
:1017900000BF00BF00BF00BFD1F80880B8F1000F44
:1017A00002D14FF0040C0BE0D1F80880B8F1010F22
:1017B00003D14FF0080C146102E04FF0080C5461A3
:1017C00003E04FF0000C00E000BF00BFFF2801D88D
:1017D000904601E002F104084646FF2802D84FEA8D
:1017E000830803E0A3F108084FEA88084746D6F8C3
:1017F00000804FF00F0909FA07F928EA09080CFAE6
:1018000007F900E07AE048EA0908C6F80080D1F854
:10181000048008F08058B8F1805F6FD100BFDFF816
:10182000E481D8F8188048F00108DFF8D891C9F8A9
:101830001880C846D8F8188008F00108CDF8008054
:1018400000BF00BF4FEAB9384FEA930958F8295052
:101850004FEA83784FEA18794FF00F0808FA09F831
:1018600025EA0805DFF8A081424502D14FF00008C3
:1018700024E0DFF89881424502D14FF001081DE0D5
:10188000DFF88C81424502D14FF0020816E0DFF804
:101890008481424502D14FF003080FE0DFF87881E0
:1018A000424502D14FF0040808E0DFF8708142455C
:1018B00002D14FF0050801E04FF006084FEA8379A6
:1018C0004FEA197908FA09F848EA0505DFF8508166
:1018D0004FEA930948F82950D1F8048008F4803879
:1018E000B8F5803F0BD1DFF83C81D8F8008048EA9A
:1018F0000008DFF83091C9F800800AE075E0DFF8F1
:101900002481D8F8008028EA0008DFF81891C9F887
:101910000080D1F8048008F40038B8F5003F0ED1FB
:10192000DFF8008108F10408D8F8008048EA0008D0
:10193000DFF8F09009F10409C9F800800DE0DFF844
:10194000E48008F10408D8F8008028EA0008DFF8ED
:10195000D49009F10409C9F80080D1F8048008F492
:101960008018B8F5801F0ED1DFF8B88008F108089C
:10197000D8F8008048EA0008DFF8A89009F10809C3
:10198000C9F800800DE0DFF89C8008F10808D8F85D
:10199000008028EA0008DFF88C9009F10809C9F8EE
:1019A0000080D1F8048008F40018B8F5001F0ED1AB
:1019B000DFF8708008F10C08D8F8008048EA0008C9
:1019C000DFF8609009F10C09C9F800800DE0DFF83C
:1019D000548008F10C08D8F8008028EA0008DFF8E5
:1019E000449009F10C09C9F800805B1CD1F8008013
:1019F00028FA03F8B8F1000F7FF47CAEBDE8F88751
:101A0000000011100010024000080140000C0140CD
:101A1000001001400014014000180140001C01406A
:101A20000800014000040140C2680A400AB1416157
:101A300000E0016170470AB1016101E00B0403613C
:101A40007047000001480068704700000400002053
:101A50000348006803490978084401490860704751
:101A6000040000200C00002010B50848006840F079
:101A7000100006490860052000F080F80F2000F0F3
:101A800007F800F02BF8002010BD000000200240F5
:101A900070B504460E4800784FF47A71B1FBF0F04F
:101AA0000C490968B1FBF0F5284600F051FE08B179
:101AB000012070BD102C07D200222146501E00F0DC
:101AC0001EF80548046001E00120F2E70020F0E77D
:101AD0000C00002000000020080000207047014694
:101AE0000846002809DB00F01F0301229A40430941
:101AF0009B0003F1E023C3F8002100BF70472DE9EC
:101B0000F05F80460D461646002702F07BF9074637
:101B100039462A46334601F00700C0F1070ABAF1F8
:101B2000040F02D94FF0040A01E0C0F1070AD146C0
:101B300000F1040ABAF1070F02D24FF0000A01E0E7
:101B4000A0F1030AD4464FF0010A0AFA09FAAAF1F1
:101B5000010A0AEA020A0AFA0CFA4FF0010B0BFA20
:101B60000CFBABF1010B0BEA030B4AEA0B04214619
:101B7000404602F04FF9BDE8F09F000000BF00F0C2
:101B80000702064B19684FF6FF031940044B0B433D
:101B900043EA0221014B196000BF70470CED00E0E1
:101BA0000000FA0570B504460D460CB9012070BD61
:101BB0005A48006800F00700A8420ED25748006853
:101BC00020F007002843554908600846006800F0E7
:101BD0000700A84201D00120E9E7207800F00200C8
:101BE00002281DD1207800F00400042805D14C48BB
:101BF000406840F4E0604A494860207800F00800FE
:101C0000082805D14648406840F46050444948607F
:101C10004348406820F0F000A1680843404948600C
:101C2000207800F0010078B36068012806D13C48B4
:101C3000006800F4003090B90120B8E7606802281D
:101C400006D13748006800F0007040B90120AEE7C7
:101C50003348006800F0020008B90120A7E73048C7
:101C6000406820F00300616808432D494860FFF791
:101C7000E9FE064609E0FFF7E5FE801B41F28831E8
:101C8000884202D9032092E707E02548406800F027
:101C90000C006168B0EB810FEDD12048006800F0C6
:101CA0000700A8420ED91D48006820F0070028430D
:101CB0001A4908600846006800F00700A84201D0F1
:101CC000012074E7207800F00400042807D11448AC
:101CD000406820F4E060E1680843114948602078DA
:101CE00000F00800082808D10D48406820F4605032
:101CF000216940EAC1000A49486000F03FF80849FC
:101D00004968C1F30311074A515CC840064908609D
:101D100006480068FFF7BCFE002048E700200240AC
:101D200000100240A05B0008000000200800002016
:101D300001480068704700000000002000B5FFF770
:101D4000F7FF04494968C1F30221034A515CC840C6
:101D500000BD000000100240B05B000800B5FFF7B6
:101D6000E7FF04494968C1F3C221034A515CC840F6
:101D700000BD000000100240B05B0008F0B585B067
:101D80000FF26C0C9CE8E01001A8A0E8E0101CA584
:101D90002D68009500210022002300240020194D09
:101DA000696801F00C05F5B1042D02D0082D19D198
:101DB00001E0154819E001ADC1F38346AC5D01F4C3
:101DC000803555B10F4D6D68C5F340451DF80520B0
:101DD0000D4D6543B5FBF2F302E00C4D04FB05F33A
:101DE000184602E000BF084800BF00BF05B0F0BDC4
:101DF00002030405060708090A0B0C0D0E0F10104C
:101E0000010200000010024000127A0000093D00AB
:101E1000F8B504460CB90120F8BD207800F00100A7
:101E2000002878D0F848406800F00C0004280CD056
:101E3000F548406800F00C00082811D1F2484068CD
:101E400000F48030B0F5803F0AD1EF48006800F41C
:101E5000003000285FD0606800285CD10120DBE7FB
:101E600000BF6068B0F5803F06D1E748006840F4E5
:101E70008030E549086028E0606858B9E2480068A9
:101E800020F48030E04908600846006820F4802093
:101E900008601AE06068B0F5A02F0BD1DA4800683E
:101EA00040F48020D84908600846006840F480303B
:101EB00008600AE0D448006820F48030D249086005
:101EC0000846006820F48020086000BF606888B180
:101ED000FFF7B8FD054606E0FFF7B4FD401B642898
:101EE00001D9032098E7C848006800F400300028B2
:101EF000F2D010E0FFF7A6FD054606E0FFF7A2FDD1
:101F0000401B642801D9032086E7BF48006800F41D
:101F100000300028F2D1207800F00200022857D1CA
:101F2000B948406800F00C0050B1B748406800F074
:101F30000C00082818D1B448406800F4803098B9E3
:101F4000B148006800F0020020B12069012801D0EA
:101F5000012061E7AC48006820F0F800616940EAC0
:101F6000C100A949086033E02069E8B10120A74910
:101F70000860FFF767FD054606E0FFF763FD401BBD
:101F8000022801D9032047E79F48006800F00200BB
:101F90000028F2D09C48006820F0F800616940EA0F
:101FA000C1009949086013E0002098490860FFF7D4
:101FB00049FD054606E0FFF745FD401B022801D913
:101FC000032029E79048006800F002000028F2D1C1
:101FD000207800F0080008282DD1A069B8B10120B0
:101FE0008B490860FFF72EFD054606E0FFF72AFD46
:101FF000401B022801D903200EE78348406A00F005
:1020000002000028F2D0012001F09CF913E000202A
:102010007F490860FFF716FD054606E0FFF712FD51
:10202000401B022801D90320F6E67748406A00F0F9
:1020300002000028F2D1207800F00400042873D1B7
:1020400000277148C06900F0805070B900BF6E4829
:10205000C06940F080506C49C8610846C06900F012
:102060008050009000BF00BF01276A48006800F45C
:102070008070B0B96748006840F4807065490860B6
:10208000FFF7E0FC054606E0FFF7DCFC401B642898
:1020900001D90320C0E65F48006800F48070002882
:1020A000F2D000BFE068012806D15748006A40F02E
:1020B00001005549086227E0E06858B95248006AB3
:1020C00020F00100504908620846006A20F0040030
:1020D000086219E0E06805280BD14B48006A40F01F
:1020E0000400494908620846006A40F0010008629D
:1020F0000AE04548006A20F00100434908620846AA
:10210000006A20F00400086200BFE068A0B1FFF799
:1021100099FC054609E0FFF795FC401B41F2883128
:10212000884202D9032077E622E03748006A00F0AF
:1021300002000028EFD012E0FFF784FC054608E01B
:10214000FFF780FC401B41F28831884201D903200F
:1021500062E62D48006A00F002000028F0D1012F4D
:1021600005D12948C06920F080502749C86100BFC7
:10217000E069C8B32448406800F00C00082860D02B
:10218000E069022848D1002020490866FFF75AFC80
:10219000054606E0FFF756FC401B022801D9032044
:1021A0003AE61948006800F000700028F2D1206A71
:1021B000B0F5803F07D11448406820F40030A16892
:1021C000084311494860D4E9080108430E494968A9
:1021D00021F4741108430C49486001200B4908663A
:1021E000FFF730FC054607E03DE0FFF72BFC401B06
:1021F000022801D903200FE60348006800F00070B0
:102200000028F2D02FE000000010024000004242FF
:102210008004424200700040002014490866FFF725
:1022200011FC054606E0FFF70DFC401B022801D912
:102230000320F1E50E48006800F000700028F2D19C
:1022400011E0E069012800D1E6E50948466806F496
:102250008031206A814204D106F47011606A8142A3
:1022600001D00120D8E50020D6E500000000424260
:10227000001002402DE9FF5F0446884691461D4646
:102280000E9E012002900020019000BF94F85000A3
:10229000012803D1022004B0BDE8F09F012084F89A
:1022A000500000BFFFF7CEFB074694F851B06068BE
:1022B0000390AA46BBF1010F0BD00398B0F5827FC3
:1022C00004D1A06810B9BBF1040F02D00220019024
:1022D0003DE1B8F1000F03D0B9F1000F00D015B9FE
:1022E0000120019033E194F85100042802D0052028
:1022F00084F8510000206065C4F83890E587A58710
:10230000C4F83080E586A58620646064A06AB0F5D4
:10231000005F0DD100BF2068006820F400502168E4
:1023200008602068006840F400502168086000BF21
:102330002068006800F04000402805D02068006850
:1023400040F0400021680860E068B0F5006F56D1A9
:10235000606810B1BAF1010F09D1206B00882168C3
:10236000C860206B801C2063E08E401EE0863FE04A
:102370002068806800F0020002281CD1E08ED0B1F5
:102380000298012817D1206B00882168C860206B53
:10239000801C2063E08E401EE08600200290E08ECC
:1023A00048B9A06AB0F5005F05D12068006840F424
:1023B0008050216808602068806800F0010068B1E2
:1023C000E08F58B12068C068A16B0880A06B801CAA
:1023D000A063E08F401EE08701200290FFF732FBF0
:1023E000C01BB04204D3701C10B103200190AEE0BA
:1023F000E08E0028BCD1E08F0028B9D156E060689B
:1024000010B1BAF1010F09D1206B0078216808736F
:10241000206B401C2063E08E401EE08640E0206878
:10242000806800F0020002281CD1E08ED0B1029832
:10243000012817D1206B007821680873206B401C9D
:102440002063E08E401EE08600200290E08E48B9B6
:10245000A06AB0F5005F05D12068006840F48050A4
:10246000216808602068806800F0010068B1E08F92
:1024700058B12068C068A16B0870A06B401CA063B5
:10248000E08F401EE08701200290FFF7DBFAC01BBF
:10249000B04201D3701C00B916B90320019056E078
:1024A000E08E0028BBD1E08F0028B8D1A06AB0F53B
:1024B000005F10D13346012211462046009700F0FC
:1024C0007FFF30B1606D40F0020060650320019035
:1024D0003DE02068C06820688068C0F30010E8B163
:1024E000204600F057FF012814D1606D40F0020033
:1024F000606500BF2068006820F400502168086013
:102500002068006840F400502168086000BF012086
:10251000019003E04FF6EF70216888603A4631463B
:10252000204600F023FF20B10120019020206065AB
:102530000DE0A06850B900BF002000902068C0687E
:10254000009020688068009000BF00BF00BF01209D
:1025500084F8510000BF002084F8500000BF0198AB
:1025600099E6042808D14FF0E021096941F00401FF
:102570004FF0E022116107E04FF0E021096921F0FE
:1025800004014FF0E0221161704700002DE9F05F77
:102590004348007800287DD042480078401C4149DB
:1025A000087008460078C82878D14FF480513E481A
:1025B000FFF73AFA3D4800783D4908700846007830
:1025C00003F0E5F8044601F09FFC3A49086008462C
:1025D0000068002803DB08460068012806DB36484F
:1025E0000068344909680844334908603248006883
:1025F000B0F57A7F03DD4FF47A702F4908602E48DA
:102600000068002802DA00202B4908602A48026886
:102610002848016829A0FDF737FE33480022334BD4
:10262000D0E90061304603F0C5F880460022304B07
:1026300003F0C0F8044600222E4B02F021FF824630
:1026400052460B462CA0FDF71FFE1948017832A018
:10265000FDF71AFE1648007803F099F8824600222A
:10266000224B03F0A7F806460022214B03F0A2F804
:10267000804600221F4B02F003FF044622460B4611
:102680002BA0FDF701FE0C48006801F039F900208D
:10269000044900E002E0087004490860BDE8F09FCA
:1026A0002000002021000020000801401C00002024
:1026B000220000202400002028000020D4F6C1BF02
:1026C000CABD504944BCC6CBE3BDE1B9FBCEAA3A72
:1026D0002564A3ACD0C2B5C4434352D6B5CEAAA399
:1026E000BA25640D0A000000F005002000004E40ED
:1026F0000000144000001840C9E8B6A8B5C4C4BF23
:10270000B1EACBD9B6C8CEAAA3BA252E32662072BA
:10271000706D0D0A00000000B2B6BBF1B5C4C2F680
:10272000B3E5B8F6CAFDCEAAA3BA25640D0A000027
:10273000B5B1C7B0B5C4CAB5BCCAD7AACBD9CEAAA1
:10274000A3BA252E32662072706D0D0A00000000BB
:1027500070B504462546681EB0F1807F01D3012084
:102760000FE0681E4FF0E02148610F214FF0FF306D
:1027700001F050FB00204FF0E02188610720086144
:10278000002070BD10B5FFF701FF10BD7047704706
:1027900010B504460CB9012010BD94F83D0028B9CD
:1027A000002084F83C00204600F00CF8022084F859
:1027B0003D00211D206800F067FF012084F83D00E6
:1027C0000020E9E7704701460868C06840F0010052
:1027D0000B68D8600868806800F00702062A05D0F8
:1027E0000868006840F001000B681860002070471E
:1027F00002490968491C014A116070471C00002009
:102800002DE9F04104460D46164600BF94F83C0001
:10281000012802D10220BDE8F081012084F83C00AB
:1028200000BF022084F83D0096B9EB68D5E900129C
:10283000206801F06BF82068806920F00C002168A6
:10284000886120688069A9680843216888613DE043
:10285000042E13D1EB68D5E90012206801F094F83A
:102860002068806920F44060216888612068806960
:10287000A96840EA01202168886127E0082E12D16A
:10288000EB68D5E90012206801F09BF82068C06968
:1028900020F00C002168C8612068C069A96808435D
:1028A0002168C86112E0EB68D5E90012206801F0E8
:1028B000A4F82068C06920F440602168C8612068DD
:1028C000C069A96840EA01202168C861012084F834
:1028D0003D0000BF002084F83C0000BF00BF9AE725
:1028E00010B504460CB9012010BD94F83D0028B97C
:1028F000002084F83C00204600F00CF8022084F808
:102900003D00211D206800F0BFFE012084F83D003D
:102910000020E9E710B586B004462068B0F1804F8A
:1029200026D100BF1348C06940F001001149C861B9
:102930000846C06900F00100019000BF00BF00BF61
:102940000846806940F0040088610846806900F00C
:102950000400019000BF00BF0420029000200390FB
:10296000022004900320059002A90348FEF7BCFE54
:1029700006B010BD001002400008014070B50446CA
:102980000D4635B1042D0BD0082D10D00C2D1CD1C7
:1029900014E02068C06840F002002168C86015E0BB
:1029A0002068C06840F004002168C8600EE020681C
:1029B000C06840F008002168C86007E02068C0686F
:1029C00040F010002168C86000E000BF00BF012295
:1029D0002946206800F0A6FE2068806800F00706FF
:1029E000062E05D02068006840F0010021680860CC
:1029F000002070BD10B5044620680069C0F3400097
:102A0000D8B12068C068C0F34000B0B16FF00200D8
:102A100021680861012020772068806900F00300A8
:102A200018B12046FFF7E4FE05E0204600F0E8F884
:102A3000204600F06BFA0020207720680069C0F380
:102A40008000D8B12068C068C0F38000B0B16FF0DA
:102A5000040021680861022020772068806900F462
:102A6000407018B12046FFF7C3FE05E0204600F095
:102A7000C7F8204600F04AFA002020772068006955
:102A8000C0F3C000D8B12068C068C0F3C000B0B1C6
:102A90006FF0080021680861042020772068C06971
:102AA00000F0030018B12046FFF7A2FE05E0204623
:102AB00000F0A6F8204600F029FA002020772068D0
:102AC0000069C0F30010D8B12068C068C0F30010DE
:102AD000B0B16FF0100021680861082020772068ED
:102AE000C06900F4407018B12046FFF781FE05E090
:102AF000204600F085F8204600F008FA00202077F4
:102B00002068006900F0010058B12068C06800F03A
:102B1000010030B16FF0010021680861204600F02B
:102B200023FA20680069C0F3C01058B12068C0685B
:102B3000C0F3C01030B16FF08000216808612046FA
:102B4000FFF724FE20680069C0F3801058B12068A8
:102B5000C068C0F3801030B16FF040002168086198
:102B6000204600F002FA20680069C0F3401058B116
:102B70002068C068C0F3401030B16FF020002168B9
:102B800008612046FFF703FE10BD70B504460E46EF
:102B9000154600BF94F83C00012801D1022070BD09
:102BA000012084F83C0000BF022084F83D0035B1CC
:102BB000042D09D0082D0CD00C2D14D10EE0314677
:102BC000206800F0C1FD0FE03146206800F0F4FD00
:102BD0000AE03146206800F02DFE05E0314620680D
:102BE00000F064FE00E000BF00BF012084F83D005B
:102BF00000BF002084F83C0000BF00BFCFE700000A
:102C00000146054A1268526A90B2044A1288024488
:102C1000014B1B68DA637047200600202C0000205F
:102C200010B504460CB9012010BD94F83D0028B938
:102C3000002084F83C00204600F00CF8022084F8C4
:102C40003D00211D206800F01FFD012084F83D009B
:102C50000020E9E710B586B004461649206888428E
:102C600026D100BF1448C06940F002001249C86173
:102C70000846C06900F00200019000BF00BF00BF1D
:102C80000846806940F0080088610846806900F0C5
:102C90000800019000BF00BF0120029002200390B5
:102CA000012004900320059002A90448FEF71CFDB2
:102CB00006B010BD0004004000100240000C0140AE
:102CC00070B504460D4635B1042D0BD0082D10D03B
:102CD0000C2D1CD114E02068C06840F0020021686F
:102CE000C86015E02068C06840F004002168C86032
:102CF0000EE02068C06840F008002168C86007E066
:102D00002068C06840F010002168C86000E000BF83
:102D100000BF01222946206800F004FD0F49206809
:102D2000884203D00E492068884201D1012000E08A
:102D3000002028B12068406C40F4004021684864BD
:102D40002068806800F00706062E05D0206800681D
:102D500040F0010021680860002070BD002C014097
:102D60000034014070B504460D46164600BF94F885
:102D70003C00012801D1022070BD012084F83C00F4
:102D800000BF022084F83D0036B1042E1BD0082E6F
:102D900031D00C2E5ED145E02946206800F0D4FCED
:102DA0002068806940F00800216888612068806997
:102DB00020F004002168886120688069296908433F
:102DC0002168886147E02946206800F0F5FC20680A
:102DD000806940F40060216888612068806920F47F
:102DE00080602168886120688069296940EA012043
:102DF000216888612FE02946206800F01BFD2068CB
:102E0000C06940F008002168C8612068C06920F0EE
:102E100004002168C8612068C069296908432168E5
:102E2000C86118E02946206800F040FD2068C069AC
:102E300040F400602168C8612068C06920F48060A7
:102E40002168C8612068C069296940EA01202168B9
:102E5000C86100E000BF00BF012084F83D0000BF52
:102E6000002084F83C0000BF00BF85E710B5044691
:102E70000CB9012010BD94F83D0028B9002084F859
:102E80003C00204600F00CF8022084F83D00211D93
:102E9000206800F0F9FB012084F83D000020E9E7FC
:102EA00010B586B0044616492068884226D100BF76
:102EB0001448806940F400601249886108468069BE
:102EC00000F40060019000BF00BF00BF08468069A9
:102ED00040F0040088610846806900F00400019019
:102EE00000BF00BFC814029002200390012004908C
:102EF0000320059002A90448FEF7F6FB06B010BDBA
:102F0000002C014000100240000801407047000002
:102F100070B504460E4601223146206800F002FCDE
:102F20000F492068884203D00E492068884201D1A9
:102F3000012000E0002028B12068406C40F40040EF
:102F4000216848642068806800F00705062D05D0D8
:102F50002068006840F0010021680860002070BD12
:102F6000002C014000340140704770477047014613
:102F70000022002391F8392091F83A3042EA030008
:102F8000704700002DE9F047044620680568206876
:102F9000C668206847694FF00008C14605F00F0871
:102FA000B8F1000F0AD105F0200038B106F020007A
:102FB00020B1204600F098FDBDE8F087B8F1000F81
:102FC0006DD007F0010018B906F49070002866D0A3
:102FD00005F0010030B106F4807018B1E06B40F0EC
:102FE0000100E06305F0040030B107F0010018B102
:102FF000E06B40F00200E06305F0020030B107F042
:10300000010018B1E06B40F00400E06305F0080037
:1030100030B107F0010018B1E06B40F00800E06348
:10302000E06B68B305F0200028B106F0200010B175
:10303000204600F059FD20684069C0F38019E06B1C
:1030400000F0080010B9B9F1000F22D0204600F0BE
:103050002BFD2068406900F04000B0B12068406955
:1030600020F0400021684861606B50B11748616BE7
:103070004863606BFEF764FA10B1606B416B884780
:103080000CE02046FFF772FF08E02046FFF76EFFD6
:1030900004E02046FFF76AFF0020E0638CE705F0BC
:1030A000800030B106F0800018B1204600F040FEEC
:1030B00082E705F0400030B106F0400018B120462C
:1030C00000F002FD78E700BF76E70000953A0008BF
:1030D00010B504460CB9012010BDA06900B100E094
:1030E00000BF94F8390028B9002084F83800204641
:1030F00000F028F8242084F839002068C06820F403
:1031000000502168C860204600F042FD2068006938
:1031100020F49040216808612068406920F02A006E
:10312000216848612068C06840F400502168C86088
:103130000020E063202084F8390084F83A00002061
:10314000CAE7000010B586B00446254920688842C9
:1031500044D100BF2348806940F0040021498861C0
:103160000846806900F00400019000BF00BF00BF66
:103170000846806940F4804088610846806900F410
:103180008040019000BF00BF00BF0846806940F04A
:10319000010088610846806900F00100019000BFCD
:1031A00000BF4815029002200390012004900320E4
:1031B000059002A90C48FEF797FA4FF48060029040
:1031C0000020039002A90848FEF78EFA2520FEF79A
:1031D00086FC032211462520FEF791FC06B010BDA7
:1031E00000380140001002400008014010B50346BD
:1031F00093F83A0020282FD101B10AB9012010BD5F
:1032000000BF93F83800012801D10220F7E7012020
:1032100083F8380000BF99629A85DA850020D86368
:10322000222083F83A0000BF002083F8380000BF56
:103230001868C06840F480701C68E06018684069D5
:1032400040F001001C6860611868C06840F0200010
:103250001C68E0600020D2E70220D0E71D4A016828
:10326000914236D11C49098801F4004189BB1A49B1
:10327000098801F4804171B1184909780A2903D0FD
:103280000021154A118024E01349098841F40041C6
:10329000114A11801DE0114909780D2906D10E4906
:1032A000098841F480410C4A118012E00B490978E9
:1032B000094A1288C2F30D02094B9954064909883C
:1032C000491C054A118011460988C72901DD0021E2
:1032D0001180704700380140180000201A000020BB
:1032E000DC030020704700BFFEE7000000B585B09A
:1032F00000BF1048806940F004000E49886108460C
:10330000806900F00400009000BF00BF88140190A5
:103310000120029003900320049001A90648FEF7C3
:10332000E3F900224FF480510348FEF784FB05B017
:1033300000BD0000001002400008014000BFFEE791
:103340007047704708B508490968C9084FF47A7290
:10335000B1FBF2F14143009100BF00BF00994A1E4A
:1033600000920029F9D108BD00000020F8B50446FC
:103370000D4616462B46002280212046009600F07E
:103380001FF828B1606D40F0200060650320F8BD93
:103390000020FCE7014601207047000001B582B023
:1033A000002001904FF47A70012301AA02A9009035
:1033B0000248FEF75FFF9DF804000EBDE404002004
:1033C0002DE9F04104460E4617461D46DDF81880EB
:1033D0003EE0681CD8B3FEF735FBA0EB0800A8421E
:1033E00000D2A5BB2068406820F0E000216848605A
:1033F0006068B0F5827F0DD1A068B0F5004F03D0B2
:10340000A068B0F5806F05D12068006820F040000A
:1034100021680860A06AB0F5005F0DD100BF206888
:10342000006820F40050216808602068006840F4BB
:1034300000502168086000BF012084F8510000BFDF
:10344000002084F8500000BF0320BDE8F081FFE7B2
:10345000206880683040B04201D1012000E00020A7
:10346000B842B6D10020F0E7704730B58FB00546BE
:1034700000240120059000040690002007900220FF
:103480000C90C1030D910E9505A8FEF7C1FC0446F2
:103490000CB100BFFEE70F20009002200190002039
:1034A00002904FF48060039000200490022168464F
:1034B000FEF778FB04460CB100BFFEE70FB030BD4D
:1034C00010B5FEF7C5FAFFF75DF910BD11480068A9
:1034D00040F001000F490860084640680E49084066
:1034E0000C494860084600680C49084009490860D2
:1034F0000846006820F4802008600846406820F4F0
:10350000FE0048604FF41F008860C803044908604B
:1035100070470000001002400000FFF8FFFFF6FEB9
:1035200008ED00E070B504460D460F480F490860ED
:103530000846456000218160C4600161FFF796FC88
:1035400060200B490860204604EBD0714910094AFD
:1035500011601046006806494860002088600C220F
:103560000248FFF7FFFB70BD002C01404005002022
:10357000800500202800002070B505460C464FF05D
:103580008040114908600846446000218160C560A0
:103590000161FFF7A5F900200C490860012048608F
:1035A00000208860C86008220748FFF729F9082131
:1035B0000548FFF7E3F9002201211C20FEF79FFADE
:1035C0001C20FEF78CFA70BD9C050020DC05002055
:1035D00010B50248FFF70EFA10BD00009C05002050
:1035E00010B50248FFF706FA10BD000020060020C3
:1035F00070B505460C4610481049086008464460FE
:1036000000218160C5600161FFF70AFB30200C4991
:1036100008604FF6FF704860002088600822074865
:10362000FFF7B3FA002211461D20FEF768FA1D20AD
:10363000FEF755FA70BD000000040040200600208F
:103640006006002010B50E480068C06800F0010058
:1036500078B10C4908698047002009490968486227
:1036600000BF642006490968C86264210448C1603B
:1036700000BF6FF0010002490968086110BD000039
:1036800090060020E802002010B50268204B984206
:103690000ED0204B98420BD0B0F1804F08D01E4B7B
:1036A000984205D01D4B984202D01D4B984203D141
:1036B00022F070024B681A43154B98420ED0154BFE
:1036C00098420BD0B0F1804F08D0134B984205D0F0
:1036D000124B984202D0124B984203D122F440720E
:1036E000CB681A4322F080034C6943EA040202606B
:1036F0008B68C3620B688362054B984202D0054B0E
:10370000984201D10B6903630123436110BD00009E
:10371000002C01400034014000040040000800403B
:10372000000C004030B501F01F05012404FA05F338
:10373000046A9C430462046A01F01F0502FA05F55D
:103740002C43046230BD000030B5056A25F0010548
:103750000562026A4368846924F0700424F003045B
:103760000D682C4322F002028D682A43104DA842B6
:1037700000D103E00F4DA84206D100BF22F008029D
:10378000CD682A4322F00402094DA84202D0094D17
:10379000A84207D123F4807323F400734D692B43AF
:1037A0008D692B43436084614D684563026230BD7F
:1037B000002C01400034014030B5056A25F01005A9
:1037C0000562026A4368846924F4E04424F4407486
:1037D0000D6844EA052422F020028D6842EA0512B1
:1037E000124DA84200D103E0114DA84207D100BFFD
:1037F00022F08002CD6842EA051222F040020B4D11
:10380000A84202D00A4DA84209D123F4806323F4D0
:1038100000634D6943EA85038D6943EA850343608C
:1038200084614D688563026230BD0000002C014058
:103830000034014030B5056A25F480750562026ADE
:103840004368C46924F0700424F003040D682C4319
:1038500022F400728D6842EA0522124DA84200D17E
:1038600003E0114DA84207D100BF22F40062CD68E9
:1038700042EA052222F480620A4DA84202D00A4D93
:10388000A84209D123F4805323F400534D6943EA3D
:1038900005138D6943EA05134360C4614D68C56330
:1038A000026230BD002C01400034014030B5056A91
:1038B00025F480550562036A4468C26922F4E04237
:1038C00022F440720D6842EA052223F400538D6809
:1038D00043EA0533084DA84202D0084DA84204D15E
:1038E00024F480444D6944EA85144460C2614D6803
:1038F0000564036230BD0000002C0140003401402B
:103900000149086070470000402C014070B50C462A
:103910001546066A26F0010606628169026A154E9E
:10392000B0420ED0144EB0420BD0B0F1804F08D050
:10393000124EB04205D0124EB04202D0114EB042EB
:1039400001D1012600E000261EB121F00301294328
:1039500001E041F0010121F0F001F02606EA031632
:10396000314322F00A0204F00A0632438161026206
:1039700070BD0000002C01400034014000040040F4
:1039800000080040000C004070B50C461546066A61
:1039900026F0100606628169026A21F4407141EA4C
:1039A000052121F470414FF4704606EA0336314395
:1039B00022F0A002A02606EA0416324381610262C8
:1039C00070BD70B50C461546066A26F48076066210
:1039D000C169026A21F00301294321F0F001F026B8
:1039E00006EA0316314322F400724FF4007606EA29
:1039F00004263243C161026270BD70B50C461546A3
:103A0000066A26F480560662C169026A21F4407192
:103A100041EA052121F470414FF4704606EA03366D
:103A2000314322F400524FF4005606EA0436324382
:103A3000C161026270BD000038B504460D4600BF8A
:103A40001148C06940F004000F49C8610846C069C8
:103A500000F00400009000BF00BF032211461E20AA
:103A6000FEF74DF81E20FEF73AF8084808490860AE
:103A70000846456000218160C4600161FEF788FE50
:103A80000348FEF7A0FE38BD0010024000080040C9
:103A90009006002070B505466C6A0020E085E08441
:103AA0002046FFF763FA70BD0168C96821F4907180
:103AB0000268D1600168496921F001010268516121
:103AC000202180F83A10704710B504462068C0687D
:103AD00020F040002168C860202084F8390020468A
:103AE000FFF700FC002010BD70B5044694F83A00C2
:103AF00022284AD1A068B0F5805F13D1A56A206959
:103B000040B920684068C0F308002880A06A801C83
:103B1000A06219E020684068C0B22880A06A401CFA
:103B2000A06211E0206938B920684068C1B2A26A79
:103B3000501CA062117007E02068406800F07F010F
:103B4000A26A501CA0621170E08D401E80B2E08518
:103B5000C8B92068C06820F020002168C8602068CB
:103B6000C06820F480702168C8602068406920F037
:103B7000010021684861202084F83A002046FFF7C0
:103B80006DFB002070BD0020FCE70220FAE700007A
:103B900070B504462168096921F44051E268114377
:103BA000226811612269A1681143626941EA020534
:103BB0002168C96841F20C62914329432268D160AF
:103BC0002168496921F44071A26911432268516159
:103BD000564A2168914254D1FEF7C0F800EBC0016B
:103BE00001EB001162689200B1FBF2F100EBC00240
:103BF00002EB001263689B00B2FBF3F26423B2FB9A
:103C0000F3F202EBC20303EB0212A1EB82013222B8
:103C100002EB01116422B1FBF2F101F0F00100EBC3
:103C2000C00202EB001263689B00B2FBF3F2642354
:103C3000B2FBF3F201EB021200EBC00101EB001149
:103C400063689B00B1FBF3F100EBC00303EB0013CF
:103C50006668B600B3FBF6F36426B3FBF6F303EB3A
:103C6000C30606EB0313A1EB8301322303EB01111F
:103C70006423B1FBF3F101F00F011144226891605C
:103C800053E0FEF75BF800EBC00101EB0011626846
:103C90009200B1FBF2F100EBC00202EB001263688C
:103CA0009B00B2FBF3F26423B2FBF3F202EBC2031C
:103CB00003EB0212A1EB8201322202EB011164221A
:103CC000B1FBF2F101F0F00100EBC00202EB0012D7
:103CD00063689B00B2FBF3F26423B2FBF3F201EBE7
:103CE000021200EBC00101EB001163689B00B1FB05
:103CF000F3F100EBC00303EB00136668B600B3FBFF
:103D0000F6F36426B3FBF6F303EBC30606EB0313EB
:103D1000A1EB8301322303EB01116423B1FBF3F127
:103D200001F00F0111442268916070BD003801401C
:103D3000014691F8390021282CD18868B0F5805FC0
:103D40000FD10A6A1088C0F308000B685860086930
:103D500018B9086A801C086209E0086A401C0862F9
:103D600005E00B6A581C086218780B685860C88C0C
:103D7000401E80B2C88458B90868C06820F080002E
:103D80000B68D8600868C06840F040000B68D860D5
:103D9000002070470220FCE710B500240C48FFF714
:103DA000F1F800BF01E0641C00BF0948FFF7DFF82D
:103DB0002028F8D100BF002401E0641C00BF0122CC
:103DC00004490348FFF712FA0028F6D100BF10BDDE
:103DD000A40400201A00002000BFFEE7490050EABA
:103DE000C12018BF04204A0D18BF40F0010040F266
:103DF000FF72B2EB515F08BF40F00200012808BF1C
:103E00000520704702480068C0F302207047000098
:103E10000CED00E010B5002804DB0A07130E054A7C
:103E2000135406E00A07140E034A00F00F031B1F89
:103E3000D45410BD00E400E018ED00E030380A284A
:103E400001D2012070470020704700BF704700007A
:103E500001490880704700002C00002010B504467E
:103E60000420FEF77EFB0148046010BD1000002016
:103E700030B50446002504E04FF47A7000F004F8F1
:103E80006D1CA542F8D330BD70B5034600224FF03B
:103E9000E02675690D4E366803FB06F44FF0E02608
:103EA000B16910E04FF0E026B06988420BD088423B
:103EB00002D20E1A324402E02E1A0E443244014657
:103EC000A24200D300E0EDE700BF70BD100000206B
:103ED00000BF054A126802F04002002AF9D0C2B2BF
:103EE000014B1B1D1A6070470038014070B5044635
:103EF0000D4629462046FFF77BFB08210148FEF7C7
:103F0000DFFE70BD200600202DE9F04F8BB0044687
:103F10000D462249D1E9008342462046294601F058
:103F200047FD06460F461D48D0E90A834246D0E9C0
:103F300006A1504601F03EFCCDE906011748D0E944
:103F400008834246D0E904A1504601F033FCCDE994
:103F50000201124832463B46D0E90281404601F058
:103F600029FCCDE90001DDE9022301F02DFDCDE9B9
:103F70000401DDE9062301F0DBF9CDE9080101F0D8
:103F8000D7FB0A900549D1E90801044AC2E90A01B0
:103F9000C2E908670A980BB0BDE8F08FF005002071
:103FA00000210B4A116251629162D16209490A48AB
:103FB000C2E9021008460949C2E904014FF0333151
:103FC0000748C2E9061000210648C2E90010704700
:103FD000F00500209A999999999909409999F13F8A
:103FE0003333C3BF00C0684000BFFDF73DFD4FF451
:103FF000E010FFF73AFA4820FFF730FF4FF4E130C6
:1040000000F09EF80B4841685420884741F2883000
:10401000FFF72EFF472140F2E73001F055F901206C
:10402000FFF732FF47214FF6FF70FFF75FFF00BF3A
:10403000FEE70000E8020020014608687047000023
:10404000014A03C270470000F005002010B5044685
:10405000214602A0FCF718F910BD00000D0A2573D7
:104060000D0A000070B505460024002011490860C3
:104070000120FFF709FFC5F30740FFF78FF904435D
:104080002402C5F30720FFF789F904432402E8B2AC
:10409000FFF784F904430120FFF7F6FE01200649EB
:1040A000C1F8AC01C4F31304214604A0FCF7ECF8FA
:1040B000204670BDAC012242000022420D0A307839
:1040C00025780D0A0000000070B504460025254340
:1040D000294608A0FCF7D8F82846FFF7C3FF064694
:1040E000214608A0FCF7D0F831460CA0FCF7CCF82C
:1040F00070BD00000D0A636D643A20307825780D9C
:104100000A0000000D0A4D6963726F5374657020D8
:104110007365743A307825780D0A00000D0A746DC5
:10412000633236305365744D6963726F53746570D2
:104130002072657475726E3A307825780000000040
:1041400010B5044609480A49086008464460002141
:104150008160C160016181610C214161FEF7B8FF9E
:10416000012204490248FFF741F810BD0038014020
:10417000A40400201A00002030B595B0054613AB0A
:1041800012AA09A9284600F03FFA044614B12046B5
:1041900015B030BD0020149026E0224909689DF832
:1041A000502001EBC20113AB11AA486801A900F02D
:1041B0002BFA04460CB12046EAE709A901A800F051
:1041C000E1FC60B99DF844009DF84810884201DD8B
:1041D0000220DDE79DF85000124988750AE09DF83D
:1041E0005000401CC0B214900E48007D9DF8501045
:1041F0008842D2DC00BF0B48007D9DF850108842F9
:1042000001D10420C4E714A9284600F0DDFA0446D1
:104210000CB12046BCE79DF85000024948750020CB
:10422000B6E70000E80200202DE9F0419AB09C4872
:10423000847D007DA04202DC1AB0BDE8F08198497F
:10424000096801EBC40106AB07AA486808A900F099
:10425000DBF908A993A0FCF717F8002644E0904882
:10426000008B0121B1400840D8B122218FA0FCF77A
:104270000BF8304600F02EFB8949243147183946A7
:104280008BA0FCF701F8222188A0FBF7FDFF304648
:1042900000F020FB82492431084410A941F826008F
:1042A00018E0304600F016FB7D492431085810A96B
:1042B00041F826007A48C07D30B910A850F8261081
:1042C0007CA0FBF7E1FF05E010A850F826107AA0CB
:1042D000FBF7DAFF9DF81C00401EB04202D078A028
:1042E000FBF7D2FF701CC6B29DF81C008642B6DBFD
:1042F00074A0FBF7C9FF00F03FFB6948407D0B2825
:104300000DD2DFE800F0060D151E27323F4E5F721A
:1043100087006349096851F834008047054690E0FA
:104320005F4A126852F8341010988847054688E0B2
:104330005B4B1B6853F83420DDE9100190470546BC
:104340007FE0574F3F6857F8343010A807C89847A8
:10435000054676E0DFF848C1DCF800C05CF8347050
:1043600010A80FC8B84705466BE01498DFF830C1B5
:104370000090DCF800C05CF8347010A80FC8B84793
:1043800005465EE0DDE91401DFF814C1CDE9000166
:10439000DCF800C05CF8347010A80FC8B8470546B8
:1043A0004FE0DDE914121698DFF8F4C0CDE90012F1
:1043B0000290DCF800C05CF8347010A80FC8B84751
:1043C00005463EE0DDE91423DDE91610DFF8D0C034
:1043D000CDE90023CDE90210DCF800C05CF83470B0
:1043E00010A80FC8B84705462BE0DDE91523DDE925
:1043F0001710CDE90123CDE903101498DFF8A0C010
:104400000090DCF800C05CF8347010A80FC8B84702
:10441000054616E0DDE91623DDE91810CDE9022393
:10442000CDE90410DDE91401DFF874C0CDE9000125
:10443000DCF800C05CF8347010A80FC8B847054617
:1044400000BF00BF00F056FA9DF8180001280CD1FB
:104450001348C07D20B929461BA0FBF715FF07E0D4
:1044600029461BA0FBF710FF02E018A0FBF70CFF8A
:104470000B4890F8EC0088B10948D0F8F0000A2108
:10448000B0FBF1F201FB12070548D0F8F000B0FBD9
:10449000F1F83A46414611A0FBF7F6FE00BFCBE625
:1044A000E80200200D0A25732800000025630000A3
:1044B00025730000256C640030582558000000006A
:1044C0002C000000290000003D256C753B0D0A0002
:1044D0003D305825583B0D0A0000000046756E63BC
:1044E00074696F6E2052756E2054696D653A25644B
:1044F0002E2531646D730D0A00000000F0B50346EF
:10450000154600200022002600245BE01F782C2F97
:1045100001D104B901221F78292F01D01F780FB9CA
:1045200004B950E0002E3AD11F78302F02DB1F78FB
:10453000392F17DD1F782D2F14D01F782B2F11D076
:104540001F78612F02DB1F78662F0BDD1F78412F4C
:1045500002DB1F78462F05DD1F78582F02D01F7809
:10456000782F0CD102B12EE01F78612F03DB1F786A
:10457000203F0F7001E01F780F70491C1FE01F786B
:10458000222F04D102B11EE00126012417E01F787A
:10459000202F14D01F782C2F11D0FF2613E01F7866
:1045A000222F00D1002402B10DE044B11F785C2F0E
:1045B00002D15B1C471CF8B21F780F70491C471CC6
:1045C000F8B25B1CA2E700BF00270F702E70F0BD91
:1045D00010B50446002010700BE020780870641CB1
:1045E000491C1078401C10701078984201DB0120A3
:1045F00010BD2078202802D020780028EDD100209E
:10460000087000BFF4E700002DE9FF4F85B0804639
:1046100089460027002004900390012002904FF06B
:10462000000B002544461DE02078202816D005F018
:104630007F00052812DA0DB945F0800505F07F00EE
:10464000042803D120782A2800D00EE0207805F035
:104650007F010DF80100681CC5B202E0852D00D174
:1046600003E0641C20780028DED100BF8DB100205B
:1046700005F07F010DF8010051A1684600F082FAB3
:1046800018B900210898017002E001210898017012
:1046900000254FF0000A444614E0641C0AF10100B2
:1046A00000F0FF0A2078202802D020782A2809D19B
:1046B000204600F0D9F90646282E03D02A2E01D034
:1046C000CDF810A02078282802D020780028E4D146
:1046D0004446049810B10498401C04444FF0000A6A
:1046E000002654E0207810B94FF0010A50E02078FD
:1046F000282803D116B9781CC7B213E020782928DE
:1047000008D13EB917B1781EC7B201E04FF0010AD7
:1047100047B93DE02078222804D10EB9012000E0FD
:104720000020064647B9207820282FD0207889F825
:10473000000009F1010929E020782C2804D101208A
:104740000290681CC5B214E02078202811D020788F
:1047500028280ED04DB9BBF1050F06DA20780DF8E8
:104760000B000BF1010000F0FF0B0298401CC0B2DF
:104770000290012F0AD10298022807D10298401C0A
:10478000C0B202900398401CC0B20390641CA9E719
:1047900000BF0398012809D100200DF80B0008A1E3
:1047A000684600F0EFF908B90020039007990398D4
:1047B0000870002089F80000504609B0BDE8F08F6D
:1047C000766F6964000000002DE9F043B5B005463E
:1047D0000F460024002604E000213D488155701C4E
:1047E000C6B20A2EF8DB06E06D1C287818B9012045
:1047F00035B0BDE8F08328782828F5D16D1C61E03C
:1048000034AA69462846FFF779FE064635449DF8E6
:10481000D00020B1012827D0FF284CD149E09DF8D5
:10482000000000B333A9684600F029F906460EB12E
:104830000220DDE7204600F04DF825490A31339A81
:104840000A50A1F12400008B0121A1408843204996
:104850001A39088304211E480155601CC4B20A2C71
:1048600001DD0320C4E726E0684600F0A7F9401CFC
:1048700000F0FF08204600F02DF815490A3100EB42
:1048800001094946684600F08EF911481A38018B33
:104890000120A040014388B20D491A3908830C4811
:1048A00000F80480601CC4B20A2C01DD03209FE7DD
:1048B00001E002209CE700BF2878292801D0287851
:1048C00000B900E09CE700BF3C70002090E70000CA
:1048D0000203002002460020002105E0044B5B5C3F
:1048E0000344D8B24B1CD9B29142F7DB70470000A9
:1048F000020300200E480068006900F0010040B18A
:104900000C48D0F8F0004FF6FF7108440949C1F88F
:10491000F0000848D0F8F00005490968496A0844E1
:104920000449C1F8F0000846D0F8F00070470000D4
:1049300090060020E802002010B5044604EBC400F5
:1049400000EB04100122C2EB800081B24FF47A70B8
:10495000FFF772F801200149C87510BDE802002078
:1049600010B50246012000E050430B00A1F1010404
:10497000E1B2F9D110BD00006FF0010009490968EA
:10498000086100BF000C07490968C8620146054874
:10499000C16000BF00200349096848620249C1F8AC
:1049A000F000704790060020E802002070B51D4816
:1049B000008800F40040002833D01A480578002011
:1049C00019494855194881681748884704461CB951
:1049D0001649C868804721E0134800F0FBF80546F7
:1049E000012D00D02C46CCB1012C06D0022C08D0D1
:1049F000032C0AD0042C10D10BE00DA0FBF744FCD3
:104A00000BE00EA0FBF740FC07E00FA0FBF73CFC1F
:104A100003E010A0FBF738FC00BF00BF00200149F5
:104A2000088070BD18000020DC030020E802002090
:104A3000BAAFCAFDB4EDCEF3210D0A00B2CECAFD65
:104A4000B4EDCEF3210D0A00B2CECAFDCCABB6E078
:104A5000210D0A00CEB4D5D2B5BDC6A5C5E4B5C4F6
:104A6000BAAFCAFD210D0A000146491C00E0491CED
:104A70000878202801D10029F9D1087870472DE95C
:104A8000F04F05460F4600264FF00A09B3462C4664
:104A90000020386034E02078392802DC2078302883
:104AA00011DA28782D2802D028782B2800D156B189
:104AB0002078462802DC2078412804DA207858281B
:104AC00017D1012E15D12078412801DB4FF01009B4
:104AD00028782D2803D14FF0020B6D1C0FE02878A9
:104AE0002B2803D14FF0010B6D1C08E0701CC6B2DF
:104AF00005E0207800B904E00120BDE8F08F641CD7
:104B0000C9E700BF2C46B9F1100F0FD1032E01DA0F
:104B10000220F2E72078302806D16078582803D1A7
:104B2000A41CB01EC6B204E00320E6E70EB90420C0
:104B3000E3E71BE00EB1701EC6B22078392806DC10
:104B40002078302803DB2078A0F1300A02E02078BA
:104B5000A0F1370A31464846FFF702FF39680AFBE1
:104B600000103860641C207800B900E0E2E700BF64
:104B7000BBF1020F04D13868C0F10008C7F800800B
:104B80000020BAE702460AE010780B78984201D07C
:104B900001207047107800B902E0521C491CF3E76D
:104BA00000BF0020F5E706E002780A70027802B93B
:104BB00002E0401C491CF7E700BF70470146002097
:104BC00005E00A7802B903E0421CD0B2491CF8E7BC
:104BD00000BF704710B58CB004461E230BAA03A972
:104BE0002046FFF7F5FC0090009810B101200CB0B2
:104BF00010BD9DF82C00044400200B900EE04048AE
:104C00009DF82C2050F8221003A8FFF7BBFF00B935
:104C100008E09DF82C00401CC0B20B909DF82C00C1
:104C20000728ECD300BF9DF82C00072863D2DFE8EB
:104C300000F004053C5E6564630000BF31A0FBF733
:104C400023FB31A0FBF720FB3FA0FBF71DFB4EA091
:104C5000FBF71AFB5CA0FBF717FB6BA0FBF714FB41
:104C600079A0FBF711FB87A0FBF70EFB8CA0FBF7ED
:104C70000BFB94A0FBF708FB98A0FBF705FB9DA09E
:104C8000FBF702FBA2A0FBF7FFFAA8A0FBF7FCFAD8
:104C9000B4A0FBF7F9FAC1A0FBF7F6FACCA0FBF73A
:104CA000F3FAD8A0FBF7F0FAA2E216A0FBF7ECFAB1
:104CB000E4A0FBF7E9FA00200B900EE0F148006851
:104CC0009DF82C2000EBC2004168EFA0FBF7DCFA56
:104CD0009DF82C00401CC0B20B90EA48007D9DF866
:104CE0002C108842EADC07A0FBF7CEFA80E205A090
:104CF000FBF7CAFACCE179E24DE221E2F4E10000EF
:104D0000840200200D0A00002D2D2D2D2D2D2D2D7E
:104D10002D2D2D2D2D2D2D2D2D2D2D2D2D2D2D2DC3
:104D200055534D4152542056332E332D2D2D2D2DBC
:104D30002D2D2D2D2D2D2D2D2D2D2D2D2D2D2D2DA3
:104D40002D2D2D200D0A00002020202055534D41EF
:104D50005254CAC7D3C9414C49454E54454BBFAACA
:104D6000B7A2B5C4D2BBB8F6C1E9C7C9B5C4B4AE21
:104D7000BFDAB5F7CAD4BBA5BDBBD7E9BCFE2CCD05
:104D8000A8B9FD200D0A0000CBFC2CC4E3BFC9D29A
:104D9000D4CDA8B9FDB4AEBFDAD6FACAD6B5F7D32A
:104DA000C3B3CCD0F2C0EFC3E6B5C4C8CEBACEBA56
:104DB000AFCAFD2CB2A2D6B4D0D02ED2F2B4CB2C36
:104DC000C4E3BFC90D0A0000D2D4CBE6D2E2B8FCDE
:104DD000B8C4BAAFCAFDB5C4CAE4C8EBB2CECAFD06
:104DE00028D6A7B3D6CAFDD7D62831302F3136BD45
:104DF000F8D6C62CD6A7B3D6B8BACAFD29A1A2D771
:104E0000D6B7FBB4AE0D0A00A1A2BAAFCAFDC8EB7B
:104E1000BFDAB5D8D6B7B5C8D7F7CEAAB2CECAFDD5
:104E2000292CB5A5B8F6BAAFCAFDD7EEB6E0D6A71D
:104E3000B3D63130B8F6CAE4C8EBB2CECAFD2CB254
:104E4000A2D6A7B3D60D0A00BAAFCAFDB7B5BBD874
:104E5000D6B5CFD4CABE2ED6A7B3D6B2CECAFDCF52
:104E6000D4CABEBDF8D6C6C9E8D6C3B9A6C4DC2C20
:104E7000D6A7B3D6BDF8D6C6D7AABBBBB9A6C4DCE5
:104E80002E0D0A00BCBCCAF5D6A7B3D63A77777701
:104E90002E6F70656E6564762E636F6D0D0A00006F
:104EA00055534D415254D3D037B8F6CFB5CDB3C3D7
:104EB000FCC1EE28B1D8D0EBD0A1D0B4293A0D0A6C
:104EC000000000003F3A202020202020BBF1C8A194
:104ED000B0EFD6FAD0C5CFA20D0A000068656C709D
:104EE0003A202020BBF1C8A1B0EFD6FAD0C5CFA29E
:104EF0000D0A00006C6973743A202020BFC9D3C327
:104F0000B5C4BAAFCAFDC1D0B1ED0D0A0A000000A8
:104F100069643A2020202020BFC9D3C3BAAFCAFD9C
:104F2000B5C44944C1D0B1ED0D0A0A006865783AAC
:104F300020202020B2CECAFD3136BDF8D6C6CFD44F
:104F4000CABE2CBAF3B8FABFD5B8F12BCAFDD7D672
:104F5000BCB4D6B4D0D0BDF8D6C6D7AABBBB0D0A58
:104F60000A0000006465633A20202020B2CECAFD0A
:104F70003130BDF8D6C6CFD4CABE2CBAF3B8FABF0A
:104F8000D5B8F12BCAFDD7D6BCB4D6B4D0D0BDF8B5
:104F9000D6C6D7AABBBB0D0A0A00000072756E7494
:104FA000696D653A312CBFAAC6F4BAAFCAFDD4CB3D
:104FB000D0D0BCC6CAB13B302CB9D8B1D5BAAFCA73
:104FC000FDD4CBD0D0BCC6CAB13B0D0A0A0000004C
:104FD000C7EBB0B4D5D5B3CCD0F2B1E0D0B4B8F112
:104FE000CABDCAE4C8EBBAAFCAFDC3FBBCB0B2CEFF
:104FF000CAFDB2A2D2D4BBD8B3B5BCFCBDE1CAF8DD
:105000002E0D0A002D2D2D2D2D2D2D2D2D2D2D2D3F
:105010002D2D2D2D2D2D2D2D2D2D2D2D2D2D414C8D
:1050200049454E54454B2D2D2D2D2D2D2D2D2D2DFE
:105030002D2D2D2D2D2D2D2D2D2D2D2D2D2D2D20AD
:105040000D0A00002D2D2D2D2D2D2D2D2D2D2D2D2D
:105050002D2D2D2D2D2D2D2D2D2D2D2D2DBAAFCAD4
:10506000FDC7E5B5A52D2D2D2D2D2D2D2D2D2D2D4E
:105070002D2D2D2D2D2D2D2D2D2D2D2D2D2D2D2D60
:10508000200D0A00E802002025730D0A0000000030
:1050900059A0FBF7F9F800200B901AE0664909685F
:1050A0009DF82C2001EBC20101AB02AA486803A9BC
:1050B000FFF7AAFA604800689DF82C1050F83120DC
:1050C00003A95EA0FBF7E0F89DF82C00401CC0B2DD
:1050D0000B905948007D9DF82C108842DEDCAFF221
:1050E000DC30FBF7D1F883E0AFF2E830FBF7CCF827
:1050F0000BAA03A92046FFF701FA9DF82C00C8B9B6
:10510000694603A8FFF7BBFC0B909DF82C0020B963
:105110004FA00099FBF7B8F80EE09DF82C0004288A
:1051200001D0022063E54DA0FBF7AEF80120424913
:10513000C87501E002205AE547A0FBF7A5F857E043
:1051400045A0FBF7A1F80BAA03A92046FFF7D6F963
:105150009DF82C00C8B9694603A8FFF790FC0B9096
:105160009DF82C0020B942A00099FBF78DF80EE0C5
:105170009DF82C00042801D0022038E53FA0FBF761
:1051800083F800202C49C87501E002202FE532A0E9
:10519000FBF77AF82CE030A0FBF776F80BAA03A90E
:1051A0002046FFF7ABF99DF82C00C8B9694603A863
:1051B000FFF765FC0B909DF82C0078B91E4900980C
:1051C00081F8EC00084690F8EC0018B130A0FBF72D
:1051D0005BF807E035A0FBF757F803E0022006E58F
:1051E000022004E51CA0FBF74FF801E00120FEE4DB
:1051F00000BF0020FBE400002D2D2D2D2D2D2D2D89
:105200002D2D2D2D2D2D2D2D2D2D2D2D2D2D2D2DCE
:105210002DBAAFCAFD204944202D2D2D2D2D2D2D29
:105220002D2D2D2D2D2D2D2D2D2D2D2D2D2D2D2DAE
:105230002D2D2D2D200D0A00E80200202573206958
:10524000642069733A0D0A3058253038580D0A0029
:105250004845583A305825580D0A00003136BDF8F7
:10526000D6C6B2CECAFDCFD4CABE210D0A000000F8
:105270004445433A256C750D0A0000003130BDF8F5
:10528000D6C6B2CECAFDCFD4CABE210D0A000000D8
:1052900052756E2054696D652043616C63756C6155
:1052A00074696F6E204F4E0D0A00000052756E201B
:1052B00054696D652043616C63756C6174696F6ED0
:1052C000204F46460D0A000070B504460D46FEF715
:1052D0000DF8FEF765FE29462046FEF723F901206A
:1052E0000549087029462046FEF746F90C21034877
:1052F000FDF70EFE70BD00002000002040050020DC
:105300000160704710B500290AD00878002807D03E
:1053100005487844FBF716FD002801D0002010BD99
:105320000248784410BD0000D60A0000CE0A0000F2
:1053300010B591EA030F48BF83F0004300F14C839E
:10534000841A71EB030C05D2121943EB0C03001BFA
:1053500061EB0C01DFF824E14FEA1154A4EB135C7C
:105360001EEA430F18BF9EEA445F73D023EA0E0380
:10537000DCF1200E21EA045143F4801332D322FAE7
:105380000CFE10EB0E0023FA0CFE41EB0E01CCF1EB
:10539000200E03FA0EFE10EB0E0051F10001B1F5E4
:1053A000801FCCF1200E32D201EB045112FA0EF222
:1053B000BDE8104058BF7047401C38BF5FEA42024A
:1053C00018BF7047002814BF20F0010041F1000110
:1053D0004FEA410313F5001F38BF7047A1F1C041E8
:1053E00000F0E0BA012A43EB0302ACF1200CDCF13F
:1053F0001F0E32BF4FF0000E23FA0CF310EB030028
:1054000041EB0451B4EB115FD0D0A1EB045101F595
:10541000801149085FEA300001EB04510ED350F1CE
:10542000000038BF12FA0EFE08D1BDE81040C9E7EF
:10543000401C38BF5FEA4202CAD1C3E7BDE8104052
:105440004FEA410313F5001F38BF7047A1F1C04177
:1054500000F0A8BA9EEA445F08D011EA5E0FBDE8EA
:10546000104004BF01F0004100207047BDE810402B
:1054700070B500F049FA00BF64FBBE3E0000E0FFDB
:105480002DE9C04130B4DFF8A0C23CEA111418BFC6
:105490003CEA131400F0EC8081EA03051CEA1114C5
:1054A00044EAD57418BF1CEA131500F0C780A4EBBA
:1054B00005044FF0004545EAC12145EAC32341EA0E
:1054C000505143EA525304F17F74994204F5003479
:1054D0004FEAC0204FEAC22208BF904200F09C80F1
:1054E0004FEA13650FF24016765D4FEA134506FB4F
:1054F00005F7C7F1807706FB07F74FEAD737A7FB19
:1055000003687642C8F58038A7FB06CE38BFA8F1FD
:10551000010807FB08E64FF0000EA6FB028CE6FB35
:1055200003CEDCF1000CCEF1004E38BFAEF1010E1F
:10553000A6FB0C584FF000074FF00005E6FB0E8766
:10554000A1FB08C6A0FB07CE16EB0E0645F1000531
:10555000E1FB076515F1E04E7EBFA4F580345FEAFC
:1055600046066D4116F1800745F100054FEA172701
:105570004FEA066647EA0567A6F1DE46B6F1805FA8
:105580004FEA15251FD9384624F0010C05EBC471EC
:10559000BCF1FE6F01EB0C1102D8F0BCBDE800813C
:1055A00024425CBF01F5801E9EEAC47F02D4F0BC99
:1055B000BDE80081244238D4F0BCA1F1C041BDE86F
:1055C000004100F0EFB94FEAD22242EA43524FEADB
:1055D000D323A7FB02864FEAD02040EA415007FBC5
:1055E00003661EEA0E0F4FEAD12105FB026658BF83
:1055F000A6EB0056B6EB00564FEA520E4EEAC37EBB
:1056000018EB0E0E56EB530EBDD518EB02085E419B
:105610007F1C55F10005B6E74FF480154FF00007E9
:105620004FF000064FF00008ADE7F0BC4FF000006F
:1056300001F1C04101F00041BDE8008111EA0C1FF9
:105640000CEA131500D00CE013EA0C1F00F02580C3
:105650004FF00000F0BC81EA030101F00041BDE819
:105660000081F0BCBDE8004181EA030100F09AB975
:10567000F0BCBDE8004170B500F046F9097EFC3E83
:1056800000F007B881EA03014FF0000001F000418B
:10569000704781EA030100F085B9F0BCBDE8004124
:1056A0004FF0000021497047FFFDFBF9F7F5F4F2D8
:1056B000F0EEEDEBE9E8E6E4E3E1E0DEDDDBDAD8AD
:1056C000D7D5D4D3D1D0CFCDCCCBCAC8C7C6C5C40B
:1056D000C2C1C0BFBEBDBCBBBAB9B8B7B6B5B4B322
:1056E000B2B1B0AFAEADACABAAA9A8A8A7A6A5A40D
:1056F000A3A3A2A1A09F9F9E9D9C9C9B9A999998D1
:105700009797969595949393929191908F8F8E8E73
:105710008D8C8C8B8B8A8989888887878685858400
:1057200084838382828181800000FF070000F87FEC
:105730004FEA41034FEA5353A3F58063D3F11E03AD
:10574000C8BFD3F1210C0CDD4FF0004242EAC12268
:1057500042EA505232FA03FC8CEAE17CACEBE17095
:105760007047102BC4BF0020704703F5787CBCF154
:10577000FF3F04D06FF0004282EA2100704770B50D
:1057800000F0C2F84992248000207047F2E7B0FA96
:1057900080F310FA03F10AD0C3F11D0303F580630F
:1057A0004FEA41504FEA035202EBD12170474FF0CC
:1057B00000007047DFF848C170B51CEA111E1EBF1B
:1057C0001CEA13159EEA0C0F95EA0C0F00F06F808F
:1057D00081EA030423EA4C134EEAD47E21EA4C11F9
:1057E00041F4801143F48013AE44A1FB024CA0FBB2
:1057F0000365AEF17F7E361955EB0C05A1FB034C1A
:105800004CF10003A0FB021C16EB0C06654153F1A2
:105810000003094218BF46F0010613F4007F0BD1C4
:105820004FEA03314FEA0530340341EA155140EAAB
:1058300016506FF003020AE04FEAC3214FEAC52079
:10584000F40241EA555140EA56506FF0020202EB71
:105850002E4201EB025585EACE710AD05FEA440C74
:1058600018BF24F0004450F1000041F1000120EA8B
:10587000D47040F2FE7C624500D270BDA84214BFD5
:105880004FF080444FF04044002E08BF0024BEF18A
:10589000806FA8BFA1F1C041BDE8704080F2828056
:1058A0004FF0000001F1C04101F0004170479EEA55
:1058B0000C0F0CEA131518BF95EA0C0F06D04FF029
:1058C000000081EA030E0EF0004170BD00F01CF8EC
:1058D0008900013E00F007B800F009B84FEA430C18
:1058E0005FEA5C5C08D081EA030100F05BB84FEA34
:1058F000410C5FEA5C5CF6D14FF000000149704753
:105900000000FF070000F87F0EF1020E2EF0030EDC
:105910005EF8046B364205D4012A43EB030515F506
:10592000001F12D8012841EB010C1CF5001F0CD8F8
:105930000ED14FEAD17C15F5001F0CEB4C0C0CF18D
:10594000020C08BF4CEBD37C04E04FF0080C01E0E4
:105950004FEAD37C0CEB4C0526FA05F606F0070659
:10596000B6F1040C06D20EEB860CBDE870404CF08C
:10597000010C6047DFE80CF0090B02024FF0004118
:105980004FF00000A1F5002170BD19461046012816
:1059900051EB010418BFD4F5001484BF002001F0BE
:1059A000004170BD0808A0F500114FEA31017047B1
:1059B00091EA030F10B581F000413FF5C1AC83F0CF
:1059C000004300F009B8000010B591EA030F48BF8A
:1059D00083F000433FF5B4AC841A71EB030C07D29B
:1059E00012198CF0004C43EB0C03001B61EB0C0113
:1059F000DFF8A4E14FEA1154A4EB135C1EEA430F55
:105A000018BF9EEA445F00F0B08023EA6E03524262
:105A100021EA0451C3EB6E0338BF5B1EDCF1200E9C
:105A200025D322FA0CFE10EB0E0043FA0CFE41EBDC
:105A30000E01CCF1200E03FA0EFE10EB0E0051F118
:105A40000001CCF1200E29D412FA0EF201EB045120
:105A5000BDE8104058BF7047401C1CBFB2F1004F5A
:105A6000704700280CBF491C20F00100704712EB62
:105A7000020E43EB030218BF4FF0010E4EEA420242
:105A8000ACF1200CDCF11E0E54D943FA0CFE10EBE5
:105A90000E0051F1FF31CCF11E0ED5D50EF1010EE5
:105AA00012FA0EFE404141EB010101EB445C5FEA5A
:105AB0005C5C10D910EBDE7001EB045138BFBEF115
:105AC000004FBDE8104018BF704700280CBF491CAC
:105AD00020F00100704730D24FEAD42C11F50011AC
